{
  "_format": "hh-sol-artifact-1",
  "contractName": "UFSCSBT",
  "sourceName": "contracts/UFSCSBT.sol",
  "abi": [
    {
      "inputs": [
        {
          "internalType": "string",
          "name": "_name",
          "type": "string"
        },
        {
          "internalType": "string",
          "name": "_id",
          "type": "string"
        }
      ],
      "stateMutability": "nonpayable",
      "type": "constructor"
    },
    {
      "anonymous": false,
      "inputs": [
        {
          "indexed": true,
          "internalType": "string",
          "name": "_tokenId",
          "type": "string"
        }
      ],
      "name": "Burn",
      "type": "event"
    },
    {
      "anonymous": false,
      "inputs": [
        {
          "indexed": true,
          "internalType": "address",
          "name": "_address",
          "type": "address"
        },
        {
          "indexed": true,
          "internalType": "string",
          "name": "_tokenReference",
          "type": "string"
        }
      ],
      "name": "DisabledOperator",
      "type": "event"
    },
    {
      "anonymous": false,
      "inputs": [
        {
          "indexed": true,
          "internalType": "address",
          "name": "_address",
          "type": "address"
        },
        {
          "indexed": true,
          "internalType": "string",
          "name": "_tokenReference",
          "type": "string"
        }
      ],
      "name": "EnabledOperator",
      "type": "event"
    },
    {
      "anonymous": false,
      "inputs": [
        {
          "indexed": true,
          "internalType": "string",
          "name": "_tokenId",
          "type": "string"
        },
        {
          "indexed": true,
          "internalType": "string",
          "name": "_tokenReference",
          "type": "string"
        },
        {
          "indexed": true,
          "internalType": "address",
          "name": "_receiver",
          "type": "address"
        }
      ],
      "name": "Mint",
      "type": "event"
    },
    {
      "inputs": [
        {
          "internalType": "string",
          "name": "_tokenId",
          "type": "string"
        }
      ],
      "name": "burn",
      "outputs": [],
      "stateMutability": "nonpayable",
      "type": "function"
    },
    {
      "inputs": [],
      "name": "creator",
      "outputs": [
        {
          "internalType": "address",
          "name": "",
          "type": "address"
        }
      ],
      "stateMutability": "view",
      "type": "function"
    },
    {
      "inputs": [
        {
          "internalType": "address",
          "name": "_address",
          "type": "address"
        },
        {
          "internalType": "string",
          "name": "_tokenReference",
          "type": "string"
        }
      ],
      "name": "disableOperator",
      "outputs": [],
      "stateMutability": "nonpayable",
      "type": "function"
    },
    {
      "inputs": [
        {
          "internalType": "address",
          "name": "_address",
          "type": "address"
        },
        {
          "internalType": "string",
          "name": "_tokenReference",
          "type": "string"
        }
      ],
      "name": "enableOperator",
      "outputs": [],
      "stateMutability": "nonpayable",
      "type": "function"
    },
    {
      "inputs": [
        {
          "internalType": "address",
          "name": "_address",
          "type": "address"
        }
      ],
      "name": "getOperator",
      "outputs": [
        {
          "internalType": "string[]",
          "name": "",
          "type": "string[]"
        }
      ],
      "stateMutability": "view",
      "type": "function"
    },
    {
      "inputs": [],
      "name": "id",
      "outputs": [
        {
          "internalType": "string",
          "name": "",
          "type": "string"
        }
      ],
      "stateMutability": "view",
      "type": "function"
    },
    {
      "inputs": [
        {
          "internalType": "string",
          "name": "_tokenId",
          "type": "string"
        },
        {
          "internalType": "string",
          "name": "_tokenReference",
          "type": "string"
        },
        {
          "internalType": "address",
          "name": "_receiver",
          "type": "address"
        }
      ],
      "name": "mint",
      "outputs": [],
      "stateMutability": "nonpayable",
      "type": "function"
    },
    {
      "inputs": [],
      "name": "name",
      "outputs": [
        {
          "internalType": "string",
          "name": "",
          "type": "string"
        }
      ],
      "stateMutability": "view",
      "type": "function"
    },
    {
      "inputs": [
        {
          "internalType": "string",
          "name": "tokenId",
          "type": "string"
        }
      ],
      "name": "ownerOf",
      "outputs": [
        {
          "internalType": "address",
          "name": "",
          "type": "address"
        }
      ],
      "stateMutability": "view",
      "type": "function"
    }
  ],
  "bytecode": "0x60806040523480156200001157600080fd5b5060405162002218380380620022188339818101604052810190620000379190620002ff565b81600390805190602001906200004f929190620000b2565b50806004908051906020019062000068929190620000b2565b5033600260006101000a81548173ffffffffffffffffffffffffffffffffffffffff021916908373ffffffffffffffffffffffffffffffffffffffff1602179055505050620003e8565b828054620000c090620003b3565b90600052602060002090601f016020900481019282620000e4576000855562000130565b82601f10620000ff57805160ff191683800117855562000130565b8280016001018555821562000130579182015b828111156200012f57825182559160200191906001019062000112565b5b5090506200013f919062000143565b5090565b5b808211156200015e57600081600090555060010162000144565b5090565b6000604051905090565b600080fd5b600080fd5b600080fd5b600080fd5b6000601f19601f8301169050919050565b7f4e487b7100000000000000000000000000000000000000000000000000000000600052604160045260246000fd5b620001cb8262000180565b810181811067ffffffffffffffff82111715620001ed57620001ec62000191565b5b80604052505050565b60006200020262000162565b9050620002108282620001c0565b919050565b600067ffffffffffffffff82111562000233576200023262000191565b5b6200023e8262000180565b9050602081019050919050565b60005b838110156200026b5780820151818401526020810190506200024e565b838111156200027b576000848401525b50505050565b600062000298620002928462000215565b620001f6565b905082815260208101848484011115620002b757620002b66200017b565b5b620002c48482856200024b565b509392505050565b600082601f830112620002e457620002e362000176565b5b8151620002f684826020860162000281565b91505092915050565b600080604083850312156200031957620003186200016c565b5b600083015167ffffffffffffffff8111156200033a576200033962000171565b5b6200034885828601620002cc565b925050602083015167ffffffffffffffff8111156200036c576200036b62000171565b5b6200037a85828601620002cc565b9150509250929050565b7f4e487b7100000000000000000000000000000000000000000000000000000000600052602260045260246000fd5b60006002820490506001821680620003cc57607f821691505b602082108103620003e257620003e162000384565b5b50919050565b611e2080620003f86000396000f3fe608060405234801561001057600080fd5b50600436106100935760003560e01c8063920ffa2611610066578063920ffa2614610120578063af640d0f14610150578063bb70623b1461016e578063dafa1d2d1461018a578063e0bea4cf146101a657610093565b806302d05d3f1461009857806306fdde03146100b65780635865c60c146100d4578063904c574714610104575b600080fd5b6100a06101c2565b6040516100ad919061132b565b60405180910390f35b6100be6101e8565b6040516100cb91906113df565b60405180910390f35b6100ee60048036038101906100e99190611441565b610276565b6040516100fb919061157a565b60405180910390f35b61011e600480360381019061011991906116d1565b61038e565b005b61013a6004803603810190610135919061175c565b610632565b604051610147919061132b565b60405180910390f35b61015861067c565b60405161016591906113df565b60405180910390f35b610188600480360381019061018391906117a5565b61070a565b005b6101a4600480360381019061019f919061175c565b6108ba565b005b6101c060048036038101906101bb91906117a5565b610b28565b005b600260009054906101000a900473ffffffffffffffffffffffffffffffffffffffff1681565b600380546101f590611830565b80601f016020809104026020016040519081016040528092919081815260200182805461022190611830565b801561026e5780601f106102435761010080835404028352916020019161026e565b820191906000526020600020905b81548152906001019060200180831161025157829003601f168201915b505050505081565b6060600160008373ffffffffffffffffffffffffffffffffffffffff1673ffffffffffffffffffffffffffffffffffffffff168152602001908152602001600020805480602002602001604051908101604052809291908181526020016000905b828210156103835783829060005260206000200180546102f690611830565b80601f016020809104026020016040519081016040528092919081815260200182805461032290611830565b801561036f5780601f106103445761010080835404028352916020019161036f565b820191906000526020600020905b81548152906001019060200180831161035257829003601f168201915b5050505050815260200190600101906102d7565b505050509050919050565b61039783610f72565b156103d7576040517f08c379a00000000000000000000000000000000000000000000000000000000081526004016103ce906118d3565b60405180910390fd5b6103e13383610fe9565b806104395750600260009054906101000a900473ffffffffffffffffffffffffffffffffffffffff1673ffffffffffffffffffffffffffffffffffffffff163373ffffffffffffffffffffffffffffffffffffffff16145b610478576040517f08c379a000000000000000000000000000000000000000000000000000000000815260040161046f90611965565b60405180910390fd5b6040518060a001604052808481526020018381526020013373ffffffffffffffffffffffffffffffffffffffff1681526020018273ffffffffffffffffffffffffffffffffffffffff168152602001428152506000846040516104db91906119c1565b90815260200160405180910390206000820151816000019080519060200190610505929190611183565b506020820151816001019080519060200190610522929190611183565b5060408201518160020160006101000a81548173ffffffffffffffffffffffffffffffffffffffff021916908373ffffffffffffffffffffffffffffffffffffffff16021790555060608201518160030160006101000a81548173ffffffffffffffffffffffffffffffffffffffff021916908373ffffffffffffffffffffffffffffffffffffffff160217905550608082015181600401559050508073ffffffffffffffffffffffffffffffffffffffff16826040516105e391906119c1565b6040518091039020846040516105f991906119c1565b60405180910390207f665c58552754555a6288ded0e239f7590620445e1b1b77dc30795b1644f3fcce60405160405180910390a4505050565b6000808260405161064391906119c1565b908152602001604051809103902060030160009054906101000a900473ffffffffffffffffffffffffffffffffffffffff169050919050565b6004805461068990611830565b80601f01602080910402602001604051908101604052809291908181526020018280546106b590611830565b80156107025780601f106106d757610100808354040283529160200191610702565b820191906000526020600020905b8154815290600101906020018083116106e557829003601f168201915b505050505081565b600260009054906101000a900473ffffffffffffffffffffffffffffffffffffffff1673ffffffffffffffffffffffffffffffffffffffff163373ffffffffffffffffffffffffffffffffffffffff161461079a576040517f08c379a000000000000000000000000000000000000000000000000000000000815260040161079190611a4a565b60405180910390fd5b6107a48282610fe9565b156107e4576040517f08c379a00000000000000000000000000000000000000000000000000000000081526004016107db90611adc565b60405180910390fd5b600160008373ffffffffffffffffffffffffffffffffffffffff1673ffffffffffffffffffffffffffffffffffffffff1681526020019081526020016000208190806001815401808255809150506001900390600052602060002001600090919091909150908051906020019061085c929190611183565b508060405161086b91906119c1565b60405180910390208273ffffffffffffffffffffffffffffffffffffffff167f11ae1427b729f2036f1fb7428abdd5c6a2cd259c83429ee77a78bd8be68b020d60405160405180910390a35050565b6108c381610f72565b610902576040517f08c379a00000000000000000000000000000000000000000000000000000000081526004016108f990611b6e565b60405180910390fd5b6109b53360008360405161091691906119c1565b9081526020016040518091039020600101805461093290611830565b80601f016020809104026020016040519081016040528092919081815260200182805461095e90611830565b80156109ab5780601f10610980576101008083540402835291602001916109ab565b820191906000526020600020905b81548152906001019060200180831161098e57829003601f168201915b5050505050610fe9565b80610a0d5750600260009054906101000a900473ffffffffffffffffffffffffffffffffffffffff1673ffffffffffffffffffffffffffffffffffffffff163373ffffffffffffffffffffffffffffffffffffffff16145b610a4c576040517f08c379a0000000000000000000000000000000000000000000000000000000008152600401610a4390611965565b60405180910390fd5b600081604051610a5c91906119c1565b908152602001604051809103902060008082016000610a7b9190611209565b600182016000610a8b9190611209565b6002820160006101000a81549073ffffffffffffffffffffffffffffffffffffffff02191690556003820160006101000a81549073ffffffffffffffffffffffffffffffffffffffff02191690556004820160009055505080604051610af191906119c1565b60405180910390207f37214d27fd302ce6f8478f95b7598e447fefc1b3029242f09cb34db2c583315560405160405180910390a250565b600260009054906101000a900473ffffffffffffffffffffffffffffffffffffffff1673ffffffffffffffffffffffffffffffffffffffff163373ffffffffffffffffffffffffffffffffffffffff1614610bb8576040517f08c379a0000000000000000000000000000000000000000000000000000000008152600401610baf90611a4a565b60405180910390fd5b610bc28282610fe9565b610c01576040517f08c379a0000000000000000000000000000000000000000000000000000000008152600401610bf890611c00565b60405180910390fd5b600060018060008573ffffffffffffffffffffffffffffffffffffffff1673ffffffffffffffffffffffffffffffffffffffff16815260200190815260200160002080549050610c519190611c59565b67ffffffffffffffff811115610c6a57610c696115a6565b5b604051908082528060200260200182016040528015610c9d57816020015b6060815260200190600190039081610c885790505b5090506000805b600160008673ffffffffffffffffffffffffffffffffffffffff1673ffffffffffffffffffffffffffffffffffffffff16815260200190815260200160002080549050811015610ebf5783604051602001610cff91906119c1565b60405160208183030381529060405280519060200120600160008773ffffffffffffffffffffffffffffffffffffffff1673ffffffffffffffffffffffffffffffffffffffff1681526020019081526020016000208281548110610d6657610d65611c8d565b5b90600052602060002001604051602001610d809190611d50565b6040516020818303038152906040528051906020012014610eac57600160008673ffffffffffffffffffffffffffffffffffffffff1673ffffffffffffffffffffffffffffffffffffffff1681526020019081526020016000208181548110610dec57610deb611c8d565b5b906000526020600020018054610e0190611830565b80601f0160208091040260200160405190810160405280929190818152602001828054610e2d90611830565b8015610e7a5780601f10610e4f57610100808354040283529160200191610e7a565b820191906000526020600020905b815481529060010190602001808311610e5d57829003601f168201915b5050505050838381518110610e9257610e91611c8d565b5b60200260200101819052508180610ea890611d67565b9250505b8080610eb790611d67565b915050610ca4565b5081600160008673ffffffffffffffffffffffffffffffffffffffff1673ffffffffffffffffffffffffffffffffffffffff1681526020019081526020016000209080519060200190610f13929190611249565b5082604051610f2291906119c1565b60405180910390208473ffffffffffffffffffffffffffffffffffffffff167ee016acec64bb421c8cb15e945e55d570f079fedd8adff4d48276843642bdde60405160405180910390a350505050565b6000604051602001610f8390611dd5565b60405160208183030381529060405280519060200120600083604051610fa991906119c1565b9081526020016040518091039020600001604051602001610fca9190611d50565b6040516020818303038152906040528051906020012014159050919050565b6000610ff483611124565b611001576000905061111e565b60005b600160008573ffffffffffffffffffffffffffffffffffffffff1673ffffffffffffffffffffffffffffffffffffffff16815260200190815260200160002080549050811015611118578260405160200161105f91906119c1565b60405160208183030381529060405280519060200120600160008673ffffffffffffffffffffffffffffffffffffffff1673ffffffffffffffffffffffffffffffffffffffff16815260200190815260200160002082815481106110c6576110c5611c8d565b5b906000526020600020016040516020016110e09190611d50565b604051602081830303815290604052805190602001200361110557600191505061111e565b808061111090611d67565b915050611004565b50600090505b92915050565b600080600160008473ffffffffffffffffffffffffffffffffffffffff1673ffffffffffffffffffffffffffffffffffffffff168152602001908152602001600020805490501115611179576001905061117e565b600090505b919050565b82805461118f90611830565b90600052602060002090601f0160209004810192826111b157600085556111f8565b82601f106111ca57805160ff19168380011785556111f8565b828001600101855582156111f8579182015b828111156111f75782518255916020019190600101906111dc565b5b50905061120591906112a9565b5090565b50805461121590611830565b6000825580601f106112275750611246565b601f01602090049060005260206000209081019061124591906112a9565b5b50565b828054828255906000526020600020908101928215611298579160200282015b82811115611297578251829080519060200190611287929190611183565b5091602001919060010190611269565b5b5090506112a591906112c6565b5090565b5b808211156112c25760008160009055506001016112aa565b5090565b5b808211156112e657600081816112dd9190611209565b506001016112c7565b5090565b600073ffffffffffffffffffffffffffffffffffffffff82169050919050565b6000611315826112ea565b9050919050565b6113258161130a565b82525050565b6000602082019050611340600083018461131c565b92915050565b600081519050919050565b600082825260208201905092915050565b60005b83811015611380578082015181840152602081019050611365565b8381111561138f576000848401525b50505050565b6000601f19601f8301169050919050565b60006113b182611346565b6113bb8185611351565b93506113cb818560208601611362565b6113d481611395565b840191505092915050565b600060208201905081810360008301526113f981846113a6565b905092915050565b6000604051905090565b600080fd5b600080fd5b61141e8161130a565b811461142957600080fd5b50565b60008135905061143b81611415565b92915050565b6000602082840312156114575761145661140b565b5b60006114658482850161142c565b91505092915050565b600081519050919050565b600082825260208201905092915050565b6000819050602082019050919050565b600082825260208201905092915050565b60006114b682611346565b6114c0818561149a565b93506114d0818560208601611362565b6114d981611395565b840191505092915050565b60006114f083836114ab565b905092915050565b6000602082019050919050565b60006115108261146e565b61151a8185611479565b93508360208202850161152c8561148a565b8060005b85811015611568578484038952815161154985826114e4565b9450611554836114f8565b925060208a01995050600181019050611530565b50829750879550505050505092915050565b600060208201905081810360008301526115948184611505565b905092915050565b600080fd5b600080fd5b7f4e487b7100000000000000000000000000000000000000000000000000000000600052604160045260246000fd5b6115de82611395565b810181811067ffffffffffffffff821117156115fd576115fc6115a6565b5b80604052505050565b6000611610611401565b905061161c82826115d5565b919050565b600067ffffffffffffffff82111561163c5761163b6115a6565b5b61164582611395565b9050602081019050919050565b82818337600083830152505050565b600061167461166f84611621565b611606565b9050828152602081018484840111156116905761168f6115a1565b5b61169b848285611652565b509392505050565b600082601f8301126116b8576116b761159c565b5b81356116c8848260208601611661565b91505092915050565b6000806000606084860312156116ea576116e961140b565b5b600084013567ffffffffffffffff81111561170857611707611410565b5b611714868287016116a3565b935050602084013567ffffffffffffffff81111561173557611734611410565b5b611741868287016116a3565b92505060406117528682870161142c565b9150509250925092565b6000602082840312156117725761177161140b565b5b600082013567ffffffffffffffff8111156117905761178f611410565b5b61179c848285016116a3565b91505092915050565b600080604083850312156117bc576117bb61140b565b5b60006117ca8582860161142c565b925050602083013567ffffffffffffffff8111156117eb576117ea611410565b5b6117f7858286016116a3565b9150509250929050565b7f4e487b7100000000000000000000000000000000000000000000000000000000600052602260045260246000fd5b6000600282049050600182168061184857607f821691505b60208210810361185b5761185a611801565b5b50919050565b7f546865726520697320616c7265616479206120536f756c626f756e64546f6b6560008201527f6e207769746820676976656e20746f6b656e4964000000000000000000000000602082015250565b60006118bd603483611351565b91506118c882611861565b604082019050919050565b600060208201905081810360008301526118ec816118b0565b9050919050565b7f596f75206172656e7420656e61626c656420746f206d616e616765207468697360008201527f20746f6b656e5265666572656e63650000000000000000000000000000000000602082015250565b600061194f602f83611351565b915061195a826118f3565b604082019050919050565b6000602082019050818103600083015261197e81611942565b9050919050565b600081905092915050565b600061199b82611346565b6119a58185611985565b93506119b5818560208601611362565b80840191505092915050565b60006119cd8284611990565b915081905092915050565b7f4f6e6c79207468652063726561746f722063616e20616c6c6f77206e6577206f60008201527f70657261746f7273000000000000000000000000000000000000000000000000602082015250565b6000611a34602883611351565b9150611a3f826119d8565b604082019050919050565b60006020820190508181036000830152611a6381611a27565b9050919050565b7f4f70657261746f722061726520616c726561647920656e61626c656420746f2060008201527f6d616e6167652074686973206964656e74696669657200000000000000000000602082015250565b6000611ac6603683611351565b9150611ad182611a6a565b604082019050919050565b60006020820190508181036000830152611af581611ab9565b9050919050565b7f54686572652069736e74206120536f756c626f756e64546f6b656e207769746860008201527f20676976656e20746f6b656e4964000000000000000000000000000000000000602082015250565b6000611b58602e83611351565b9150611b6382611afc565b604082019050919050565b60006020820190508181036000830152611b8781611b4b565b9050919050565b7f4f70657261746f72206172656e7420656e61626c656420746f206d616e61676560008201527f2074686973206964656e74696669657200000000000000000000000000000000602082015250565b6000611bea603083611351565b9150611bf582611b8e565b604082019050919050565b60006020820190508181036000830152611c1981611bdd565b9050919050565b6000819050919050565b7f4e487b7100000000000000000000000000000000000000000000000000000000600052601160045260246000fd5b6000611c6482611c20565b9150611c6f83611c20565b925082821015611c8257611c81611c2a565b5b828203905092915050565b7f4e487b7100000000000000000000000000000000000000000000000000000000600052603260045260246000fd5b60008190508160005260206000209050919050565b60008154611cde81611830565b611ce88186611985565b94506001821660008114611d035760018114611d1457611d47565b60ff19831686528186019350611d47565b611d1d85611cbc565b60005b83811015611d3f57815481890152600182019150602081019050611d20565b838801955050505b50505092915050565b6000611d5c8284611cd1565b915081905092915050565b6000611d7282611c20565b91507fffffffffffffffffffffffffffffffffffffffffffffffffffffffffffffffff8203611da457611da3611c2a565b5b600182019050919050565b50565b6000611dbf600083611985565b9150611dca82611daf565b600082019050919050565b6000611de082611db2565b915081905091905056fea26469706673582212201a0a0dab2a60da956ff86bb2eb1c4e21507a63737030272311ce4af34a02ee0464736f6c634300080d0033",
  "linkReferences": {},
  "deployedLinkReferences": {}
}